:100000000C94C6000C94EE000C94EE000C94EE00E0
:100010000C94EE000C94EE000C94EE000C94EE00A8
:100020000C94EE000C94EE000C94180B0C94C40984
:100030000C94EE000C94EE000C94EE000C94EE0088
:100040000C94EE000C94EE000C94EE000C94EE0078
:100050000C94EE000C94EE000C94EE000C94BB0E8D
:100060000C94EE000C94850C0C94B20C0C94EE00E5
:100070000C94EE000C94EE000C94EE000C94EE0048
:100080000C94EE000C94EE000C94EE000C94EE0038
:100090000C94CF030C94EE000C94EE000C94EE0044
:1000A0000C94EE000C94EE000C94EE001201000291
:1000B000EF020140F41B0492000101020301556E9E
:1000C0006B6E6F776E0055534220494F20426F612F
:1000D00072640004030904080B0002020201000913
:1000E00004000001020200000524001001052401A3
:1000F00001010424020605240600010705810310FE
:10010000004009040100020A000000070502024045
:100110000000070583024000000000000200090FF4
:100120000000030401000C000000000000000000BB
:100130000000000000000004080201104080401090
:1001400020408040800802040180402010020110FD
:10015000801020404020040404040403040502022B
:100160000202040302020202060606060606040450
:10017000020202040400000000250028002B002ECB
:10018000003100000A011403E20CA60E11241FBE68
:10019000CFEFDAE0DEBFCDBF11E0A0E0B1E0E0E9F3
:1001A000F3E202C005900D92AA38B107D9F723E017
:1001B000AAE8B1E001C01D92A337B207E1F710E051
:1001C000C6ECD0E004C02197FE010E945510C23C4D
:1001D000D107C9F70E9442070C94A2110C940000A9
:1001E00040E051EE60E070E085E193E00E94A00EF7
:1001F0008BE891E00E9448068BE891E00E944B0555
:100200008BE891E00E94410569E171E08BE891E0A3
:100210000C942F070F9300E024E044E167E288E9A3
:1002200091E00E94400141E068E971E08BE891E0D3
:100230000F910C94EC0485E193E00E94DB0D85E1C5
:1002400093E00E94DE0D892BD1F380918A01811108
:1002500007C08BE891E00E94860681E080938A01C6
:1002600085E193E00E94EE0D682F8BE891E00C94FD
:100270002D070895FC0180850895FC01878108956C
:10028000FC0186E391E09183808363834783208729
:1002900088E0818708950F931F93CF938C01C62F19
:1002A000FC01638182EA91E00E94F402F801618519
:1002B0006C2B82EA91E00E948E0282EA91E0CF915B
:1002C0001F910F910C941103FC01118660E00C94B6
:1002D0004B01FC0188E0818760E0CF010C944B0169
:1002E0001F93CF93DF93182FD92FC62F64600E94DE
:1002F0004B0181E090E00E947D0F6C2F6B7F812F7E
:100300009D2F0E944B0182E390E0DF91CF911F91DE
:100310000C947D0F1F93CF93DF93D82FC92F162FE7
:100320000E944B01612F8D2F9C2FDF91CF911F9148
:100330000C9470010F931F93CF93DF938C01C62F02
:10034000D1E0411101C0D0E06C2F607F6D2BC8015E
:100350000E948A0180E1C89FB00111246D2BC80161
:10036000DF91CF911F910F910C948A0140E00C9482
:100370009A0161E00E94B60180ED97E00C947D0F38
:10038000DC01E62F642F18968C911897E81758F423
:10039000F0E0EE0FFF1FE45BFE4F4081640F6068EA
:1003A000CD010C94B6010895FC016581862F84600F
:1003B00085836C60CF010C94B601FC0165816D7F73
:1003C000658368600C94B601FC016581862F8260AC
:1003D00085836A60CF010C94B6011F93CF93DF939E
:1003E000EC01122F211101C010E28885681790F4EA
:1003F0008F81481778F4E881F9810084F185E02D38
:10040000CE01099541E0612FCE01DF91CF911F917F
:100410000C949A01DF91CF911F910895CF93DF93B0
:10042000EC0182EA91E00E94EA021C828885823017
:1004300010F098E09C839A81992329F0813019F477
:100440008C8184608C8362E370E080E090E00E94A5
:10045000360F6985CE010E944B0168EE73E080E0A3
:1004600090E00E94360F60E3CE010E948A0184E989
:1004700091E10E947D0F60E3CE010E948A0184E930
:1004800091E10E947D0F60E3CE010E948A0186E91E
:1004900090E00E947D0F60E2CE010E948A016C8193
:1004A0006062CE010E94B60184E08D83CE010E947D
:1004B000D40182E08E8366E0CE01DF91CF910C946F
:1004C000B60190E080E008958091D2019091D3012F
:1004D000891B990B08959091D3018091D2012FEF40
:1004E0003FEF981748F4E92FF0E0EC52FE4F2081DF
:1004F00030E09F5F9093D301C9010895E091D3014B
:100500008091D201E81730F4F0E0EC52FE4F808188
:1005100090E008958FEF9FEF08950895CF93DF93B4
:100520000F92CDB7DEB7FC0169838091AE018823BD
:10053000F1F08091AF01803250F081E090E0938340
:10054000828390E080E00F90DF91CF9108958091B9
:10055000B001E82FF0E0EF54FE4F998190838F5F58
:100560008093B0018093AF0181E090E0ECCF61E037
:10057000CE0101960E949803F7CFCF92DF92EF92BF
:10058000FF920F931F93CF93DF937C01CB018A01DE
:100590002091AE01222389F0EB016B01C40ED51E20
:1005A000CC15DD0569F06991D701ED91FC910190C1
:1005B000F081E02DC7010995F3CF642F0E949803C5
:1005C000C801DF91CF911F910F91FF90EF90DF90C5
:1005D000CF9008951092D3011092D2011092B001E1
:1005E0001092AF010C94250381E08093AE016093DB
:1005F000D1011092B0011092AF0108950F93062F10
:1006000021E04091AF0161EB71E08091D1010E9446
:1006100043031092B0011092AF011092AE010F91FE
:10062000089561E00C94FE02E2EAF1E01382128286
:1006300088EE93E0A0E0B0E084839583A683B7833F
:1006400088E591E09183808308951092610281E0B2
:1006500080935F0210925E0261E082E00E941B10B4
:1006600061E083E00E941B10E9EBF0E080818E7F67
:10067000808380818D7F808388E48093B80085E4C7
:100680008093BC0008950F93982F81E0413208F0C9
:1006900044C0809161028111FCCF32E0309361024D
:1006A00000935F023FEF3093F401109239024093C0
:1006B0003802562FAAE3B2E0FB013E2F351B341758
:1006C00070F11092600230916002990F932B909319
:1006D000600290915E02913029F510925E02909135
:1006E00060029093BB009091BC0093FDF8CF95EC15
:1006F0009093BC00222321F0909161029230D1F3BB
:100700009091F4019F3F49F08091F401803261F0B3
:100710008091F401803351F084E00F91089531917C
:100720003D93CBCF95EEE4CF82E0F7CF83E0F5CFDA
:1007300020911602260F3327331F21323105ECF4A6
:1007400020916102FC0190E080E0243069F082E0B9
:100750000895A09116022191AC01485E5D4FA40F4F
:10076000B52FB11D2C930196861798F38091160230
:10077000680F6093160280E0089581E0089585ED8A
:100780008093BC008091BC0084FDFCCF109261027C
:10079000089585EC8093BC001092610208951F9229
:1007A0000F920FB60F9211242F933F934F935F93A5
:1007B0006F937F938F939F93AF93BF93EF93FF9329
:1007C0009091B900892F887F803509F4C3C008F063
:1007D00044C0803309F4B9C098F5883101F1D0F4F0
:1007E000883009F4AAC0803109F4A7C0882309F42D
:1007F000F0C0FF91EF91BF91AF919F918F917F9149
:100800006F915F914F913F912F910F900FBE0F907D
:100810001F901895803209F498C0883251F7909152
:10082000390280913802981790F5E091390281E001
:100830008E0F80933902F0E0E65CFD4F80817FC02F
:10084000803409F493C0883409F481C0883389F670
:100850008093F4010E94C903CCCF803A09F4A0C070
:10086000C0F5803809F48AC058F5803619F1E0F4F3
:10087000883509F0BECFE091390281E08E0F809378
:1008800039028091BB00F0E0E65CFD4F80838091EF
:100890005F0281115CC081E080935E0284EA8093F4
:1008A000BC0010926102A5CF803721F0987E983667
:1008B00009F09FCF83E0809361021092F50141C05F
:1008C000803909F45BC0987E983809F092CF85E8AA
:1008D00039C0883BD9F058F5883A19F0803B09F0C7
:1008E00088CF84E080936102109217021092160262
:1008F000E0915C02F0915D020995809116028111F0
:1009000005C081E08093160210921802E091170250
:1009100081E08E0F80931702F0E0E85EFD4F80814A
:100920008093BB00909117028091160223C0907FA4
:10093000903C09F05ECF85ECB2CF8091600280934D
:10094000BB0085EC8093BC0054CF8093F4010E94DF
:10095000BF034FCFE091390281E08E0F80933902BF
:100960008091BB00F0E0E65CFD4F808390913902FE
:1009700080913802981708F0AACFE3CF8091F50153
:10098000803208F0A4CFE091F50181E08E0F8093D2
:10099000F5018091BB00F0E0EA50FE4F8083D1CF9B
:1009A0000E94C9038091F501803230F4E091F50195
:1009B000F0E0EA50FE4F10826091F50170E0E091A6
:1009C0005A02F0915B0286EF91E009951092F501D1
:1009D00010CF1092F401BBCFFF920F931F93CF93D0
:1009E000DF93EC018B01F42E798368831A821B82DA
:1009F0001A861B8685E08C87DB01ED91FC910280D5
:100A0000F381E02DCB0109958C83D801ED91FC9108
:100A10000480F581E02DC80109958D83FF2019F030
:100A200081E08A878B87DF91CF911F910F91FF9093
:100A30000895CF93DF93EC0188819981DC01ED91DA
:100A4000FC910084F185E02D40E060E009951A8278
:100A50001B82DF91CF910895CF93DF93DC01139632
:100A60001C9213978D919C911197EC01E881F9816B
:100A70000084F185E02D40E012966C91DF91CF91DA
:100A80000994DC018D919C91DC01ED91FC91008831
:100A9000F189E02D0994DC018D919C91DC01ED91AF
:100AA000FC910484F585E02D0994CF92DF92EF92BA
:100AB000FF920F931F93CF93DF93EC01888199816D
:100AC000DC01ED91FC910284F385E02D099510E0A5
:100AD0008C81181730F500E0E12EF12C8D8108177C
:100AE000F0F48881998148855985E49E9001E59EBE
:100AF000300DF49E300D1124AE81BF81A20FB31FC3
:100B0000A00FB11DFC0120813181F901C680D78081
:100B10002C91402F612FF60109950F5FDFCF1F5FEA
:100B2000D7CFDF91CF911F910F91FF90EF90DF9082
:100B3000CF900895CF93DF93EC01688579858E81FE
:100B40009F812C812150330B269FA001279F500DA0
:100B5000369F500D1124680F791F0E94801148851F
:100B600059852C812150330B249FC001259F900D66
:100B7000349F900D11242E813F8170E060E0820F40
:100B8000931F0E949211CE010E9455058881998180
:100B9000DC01ED91FC910084F185E02D4B816A81AF
:100BA000DF91CF910994CF93DF93EC018A8588235D
:100BB00019F0CE010E942C058A812C812150330B23
:100BC000821713067CF48F5F8A8388819981DC0108
:100BD000ED91FC910084F185E02D4B816A81DF91DC
:100BE000CF910994CE010E949A05EFCFCF93DF9366
:100BF000EC01262F3A818C813817C0F54D81EB81AD
:100C00008E819F81349F800D911D1124E80FF92F53
:100C1000F11D608388819981DC01ED91FC91068052
:100C2000F781E02D4B816A8109958B818F5F8B83E2
:100C30009D818917D8F08A812C812150330B82172E
:100C400013068CF0CE010E949A051B82888199813F
:100C5000DC01ED91FC910084F185E02D40E06A819A
:100C6000DF91CF9109948F5F8A83EFCFDF91CF918E
:100C70000895FC01248180859185289FA001299FEA
:100C8000500D112470E060E0868197810C949211E0
:100C9000CF93DF93EC018D81282F30E039872887AF
:100CA0009C81899FC00111240E945B109F838E83C9
:100CB000CE010E94390688819981DC01ED91FC9179
:100CC0000190F081E02D099588819981DC01ED91F9
:100CD000FC910284F385E02D0995CE01DF91CF913F
:100CE0000C941905CF93DF93EC0188819981DC0185
:100CF000ED91FC910284F385E02D0995CE010E94CF
:100D000039061A821B82DF91CF910895CF93DF932A
:100D1000EC0188819981DC01ED91FC910284F385DD
:100D2000E02D0995CE010E943906CE01DF91CF91C9
:100D30000C941905CF93DF93EC0160E2CE010E9481
:100D4000F6058B816C850E9449109111F6CFDF91D9
:100D5000CF910895CF93DF93DC0113964C911397B5
:100D6000442391F0415013964C9313978D919C918D
:100D70001197EC01E881F9810084F185E02D12964C
:100D80006C91DF91CF910994DF91CF910895CF932A
:100D9000DF93D82FC92F0E94AA0660E28D2F9C2FC7
:100DA0000E94F6058D2F9C2FDF91CF910C94AA06FF
:100DB000DC018D919C91DC01ED91FC910488F58919
:100DC000E02D0994653130F4E62FF0E0EC55FE4E4D
:100DD0000C9455106F37D9F10C94F6050C94D80685
:100DE000DC011B962C912223B1F10C94C7060C94C4
:100DF0009A060C94D3050C9472060C942C05FC01F5
:100E000080819181DC01ED91FC910684F785E02DD4
:100E10000994FC0180819181DC01ED91FC910484B5
:100E2000F585E02DF5CFFC0180819181DC01ED910C
:100E3000FC910288F389E02DEBCFFC018081918148
:100E4000DC01ED91FC910088F189E02DE1CFFC01FE
:100E50002385222351F20C94AA060C94E2060F93E8
:100E60001F93CF93DF938C01EB016991662321F0EF
:100E7000C8010E94E206F9CFDF91CF911F910F9137
:100E8000089508950E94880F0E94410782E692E02B
:100E90000E94960B0E94F000CFEEDBE00E941B0147
:100EA0002097E1F30E94EF0BF9CFCF92DF92EF9200
:100EB000FF920F931F93CF93DF937C016A0110E0A1
:100EC00000E00C151D0581F0EB01D701ED91FC91BF
:100ED0000190F081E02D6991C7010995892B21F0DE
:100EE0000F5F1F4FBE01EDCFC801DF91CF911F9162
:100EF0000F91FF90EF90DF90CF900895615030F008
:100F0000FC018091F1008193CF01F8CF289884E60D
:100F100080936A0208954091650250916602209183
:100F200063023091640242175307B4F49091E800D1
:100F30009570E1F39091E80092FD19C08093F10063
:100F4000809165029091660201968F739927892B93
:100F500019F48EEF8093E80080916502909166020B
:100F60000196909366028093650281E0089580E087
:100F70000895EF92FF920F931F93CF93DF93F82E74
:100F8000192FE62E042F81E0860F880F0E948B0711
:100F900083E00E948B07CF2DD12FEC0EFD2EF11C8C
:100FA000CE15DF05B9F007FF13C0FE0184910E9442
:100FB0008B07182F80E00E948B07812321968111D7
:100FC000EFCFDF91CF911F910F91FF90EF90089598
:100FD0008881EDCF81E0F5CF8091D700816080934B
:100FE000D70080EA8093D80089B5806189BD89B532
:100FF000826089BD09B400FEFDCF61E070E080E051
:1010000090E00E94360F8091D8008F7C80618093A1
:10101000D8008091E000807F8093E0000895CF9316
:10102000DF930F92CDB7DEB71982CE0101960E94F1
:10103000110E0E949B0DBE016F5F7F4F0E940F0D2E
:1010400089810F90DF91CF9108952FB7FC01208304
:10105000F89467706093E9000895CF93DF930F923F
:10106000CDB7DEB7682FCE0101960E94250880918A
:10107000F20099819FBF0F90DF91CF910895EF9279
:10108000FF920F931F93CF93DF930F92CDB7DEB7ED
:101090007B018A0190916902992371F157FD2CC05F
:1010A000682FCE0101960E9425088091F20090E001
:1010B000081719070CF4C801282F44E6215048F0FE
:1010C000F701289840936A023091F10031937F0133
:1010D000F5CF009739F02091F200211103C02BE6E3
:1010E0002093E80029812FBF0F90DF91CF911F91AE
:1010F0000F91FF90EF9008958FEF9FEFF5CFCF9373
:10110000DF930F92CDB7DEB741E050E0BE016F5FD5
:101110007F4F0E943F08019731F4898190E00F9042
:10112000DF91CF9108958FEF9FEFF9CFCF93DF93AA
:101130000F92CDB7DEB7682FCE0101960E94250829
:101140009091E800892F807295FF04C09091F20081
:1011500080E4891B99819FBF0F90DF91CF91089503
:101160005F926F927F928F929F92AF92BF92CF9237
:10117000DF92EF92FF920F931F93CF93DF930F9223
:10118000CDB7DEB7082F6B01B42EA52E8091690272
:10119000811113C08FEF9FEF0F90DF91CF911F91BF
:1011A0000F91FF90EF90DF90CF90BF90AF909F9006
:1011B0008F907F906F905F9008958091670280FF7D
:1011C00005C08091E00082608093E000EB2CFA2C57
:1011D000912C8AEF882E802F8072682E802F807449
:1011E000582E9AE3792EE114F10419F4992009F4A8
:1011F00060C0802F0E949608182F81110AC08A941F
:10120000882041F261E070E080E090E00E94360FBB
:10121000EACF8E151F0411F00CF01E2D602FCE01A9
:1012200001960E9425088091E80085FD03C0898110
:101230008FBFD9CF212F30E0E21AF30A662029F0C0
:10124000115060F01092F100FBCF9C2D8D2D07FF07
:1012500010C0F601115040F4C20ED31E992099F02F
:101260007092E800912CE3CF84918093F100319645
:10127000F1CF115088F3E92FF82F81918093F1007D
:101280009E2F8F2FF6CF8091E80085FD08C07092C9
:10129000E80099249394E114F10449F2E3CFE114B6
:1012A000F10409F0C4CF552009F4C1CF7092E800D1
:1012B000BECF5D9884E680936B028B2D9A2D6CCF08
:1012C0001092E900109266021092650290936402F7
:1012D000809363020895CF92DF92FF920F931F9342
:1012E000CF93DF93F82E8A01EB016B01C40ED51E5C
:1012F000CC15DD0559F0F7FE12C0FE0184910E9465
:101300008B0721968111F4CF0FEF1FEFC801DF91FA
:10131000CF911F910F91FF90DF90CF90089588811A
:10132000EECFBF92CF92DF92EF92FF920F931F9377
:10133000CF93DF936C018B01EB019BEFB92E2097CC
:10134000C1F07E01C134D1051CF080E4E82EF12CFF
:101350008091E80082FFFCCFC8018C1B9D0B6E2D95
:101360008C0D9D1D0E947E07B092E800CE19DF090A
:10137000E6CFC801DF91CF911F910F91FF90EF90C1
:10138000DF90CF90BF9008951F920F920FB60F92EB
:101390001124EF92FF920F931F932F933F934F933C
:1013A0005F936F937F938F939F93AF93BF93EF93CD
:1013B000FF93CF93DF93CDB7DEB76C97DEBFCDBF82
:1013C0001092E9008091E80083FF21C068E0CE011F
:1013D00045960E947E0782EF8093E8008D8987FF03
:1013E00033C09091E80090FFFCCF982F907609F0E1
:1013F00001C19E8991112FC0803851F580916802FA
:101400008093F1001092F1008EEF8093E8006C96CB
:101410000FB6F894DEBF0FBECDBFDF91CF91FF9125
:10142000EF91BF91AF919F918F917F916F915F915C
:101430004F913F912F911F910F91FF90EF900F903F
:101440000FBE0F901F9018959EEF9093E800CDCFA0
:101450001092F100D7CF2F89388D913059F4811136
:10146000D3CF2130310581F6809168028D7F809342
:101470006802CACF933049F48111C6CF21303105BB
:1014800019F6809168028260F2CF953049F480911C
:10149000E80080FFFCCF8F8980688093E300B4CFA1
:1014A000963009F078C0188DEB8CFC8C123039F531
:1014B00090E080E00E9460090E940F081F8299E07E
:1014C00099831A8391E09E8390EA98879AEF99878F
:1014D0002091650230916602275F3F4F3C832B834A
:1014E0008D83C7010E94600949E050E0BE016F5F33
:1014F0007F4F80E00E946B090E940F0885CFC701D3
:101500000E9460090E949B0DBE016B5E7F4F0E948E
:10151000390D009731F00CF077CF81E28093EB002A
:1015200076CF113061F11330C1F78F89882381F1B3
:10153000823049F440E86CE086EC90E00E94B90704
:10154000882359F361CF813029F440E867E08EEBBE
:1015500090E0F4CF833009F70E949B0D8E010F5F5E
:101560001F4FB8010E945A0DF80101900020E9F7C1
:101570003197BF01601B710B40E0C801DFCF6CEAFF
:1015800070E0FB01449150E080E80E946B093CCF81
:1015900063ED70E0F6CF973009F4BFCF983021F4B7
:1015A00081E08093F10030CF993009F02DCF837026
:1015B00009F0B3CFE7E0F1E081E031E096E321917B
:1015C000211109C08EE78093EA001092EA008F890A
:1015D0008093690219CF8093E9003093EB00DF011B
:1015E00011972C912093EC009093ED008F5F873042
:1015F00031F7E8CF8B8D9C8D0E946009898D811118
:1016000005C0CE0145960E941C0E9ACF0E949B0DEC
:10161000BE016B5E7F4F0E947B0D92CF8093E900ED
:101620008091F200882319F08AE38093E8000895FE
:101630001F920F920FB60F9211242F933F934F9347
:101640005F936F937F938F939F93AF93BF93CF934A
:10165000EF93FF93C091E1008091E100837F80933D
:10166000E100C3FF0FC01092E90081E08093EB001E
:101670001092EC0082E38093ED001092690288E002
:101680008093F000C2FF1BC083E00E940E0B80918C
:101690006B02882341F080916B02815080936B0232
:1016A000811101C05D9A80916A02882341F0809186
:1016B0006A02815080936A02811101C0289AC4FF96
:1016C00023C08091E2008E7E81608093E200809151
:1016D000E1008F7E8093E100809167028E7E8061C1
:1016E00080936702FF91EF91CF91BF91AF919F914E
:1016F0008F917F916F915F914F913F912F910F90BB
:101700000FBE0F901F901895C0FFECCF8091E200A4
:101710008E7E80618093E2008091E1008E7E8093D6
:10172000E100809167028E7E8160DACF10926902BB
:1017300010926802109267020E94EC078091E1000B
:101740008E7E8093E1008DE08093E200559A209A8E
:10175000EEEFFFE7859194918B3F9C4D19F481E06A
:10176000809365030895FC01818D228D90E0805C5B
:101770009F4F821B91098F7399270895FC01918DCA
:10178000828D981731F0828DE80FF11D858D90E0E4
:1017900008958FEF9FEF0895FC01918D828D98172A
:1017A00061F0A28DAE0FBF2FB11D5D968C91928D11
:1017B0009F5F9F73928F90E008958FEF9FEF089542
:1017C000FC01538D448D252F30E0842F90E0821B47
:1017D000930B541710F0CF9608950197089588ED54
:1017E0009CE0892B49F080E090E0892B29F00E9451
:1017F000D80C81110C9400000895FC01A48DA80F51
:10180000B92FB11DA35ABF4F2C91848D90E0019642
:101810008F739927848FA689B7892C93A089B18962
:101820008C9180648C93938D848D981306C002886C
:10183000F389E02D80818F7D80830895CF93DF939E
:10184000EC01888D8823B9F0AA89BB89E889F989D8
:101850008C9185FD03C0808186FD0DC00FB607FC0D
:10186000F7CF8C9185FFF2CF808185FFEDCFCE0140
:101870000E94FD0BE9CFDF91CF910895EF92FF9287
:101880000F931F93CF93DF93EC01F62E81E0888FA7
:101890009B8D8C8D981316C0E889F989808185FF0E
:1018A00011C0EE89FF896083E889F98980818064AD
:1018B000808381E090E0DF91CF911F910F91FF90A5
:1018C000EF9008950B8D10E00F5F1F4F0F731127DE
:1018D000E02E8C8D8E110CC00FB607FCFACFE88974
:1018E000F989808185FFF5CFCE010E94FD0BF1CFF4
:1018F000EB8DEC0FFD2FF11DE35AFF4FF0820B8FA4
:10190000EA89FB8980818062D3CF2F932FB72F93F1
:101910008F939F93EF93FF93E0917C02F0917D0270
:101920008081E0918202F091830282FD19C0908152
:10193000809185028F5F8F7320918602821741F01C
:10194000E0918502F0E0E459FD4F958F8093850288
:10195000FF91EF919F918F912F912FBF2F9118950C
:101960008081F6CF1F920F920FB60F9211242F9302
:101970003F934F935F936F937F938F939F93AF9317
:10198000BF93EF93FF938CE692E00E94FD0BFF91D3
:10199000EF91BF91AF919F918F917F916F915F91E7
:1019A0004F913F912F910F900FBE0F901F90189560
:1019B0008CE692E00E94B30B9C0181E0232B09F49A
:1019C00080E00895ECE6F2E01382128288EE93E064
:1019D000A0E0B0E084839583A683B7838AE691E094
:1019E000918380838DEC90E0958784878CEC90E0E8
:1019F0009787868788EC90E0918B808B89EC90E0CC
:101A0000938B828B8AEC90E0958B848B8EEC90E0AC
:101A1000978B868B118E128E138E148E0895EF92F3
:101A2000FF920F931F93CF93DF93F62EE72EFC01C7
:101A3000C281D38110E000E0209799F0E881F9811C
:101A40000280F381E02D6F2D7E2DCE01099597FD4B
:101A500006C0080F191F0884D985C02DEDCF0FEFE0
:101A60001FEFC801DF91CF911F910F91FF90EF9071
:101A700008950F931F93CF93DF93162F072FFC0129
:101A8000C281D381209779F0E881F9810480F581C2
:101A9000E02D612F702FCE010995009731F4088455
:101AA000D985C02DEFCF90E080E0DF91CF911F91DD
:101AB0000F9108950F931F93CF93DF93EB01DC01F8
:101AC00012960D911C910115110579F0D801ED9137
:101AD000FC910680F781E02DBE01C8010995C80F71
:101AE000D11DF80100851185EECF1882DF91CF91CD
:101AF0001F910F9108950F931F93CF93DF93162F8C
:101B0000072FFC01C281D381209779F0E881F98108
:101B10000190F081E02D612F702FCE010995811188
:101B200005C00884D985C02DEFCF80E0DF91CF912B
:101B30001F910F9108958091090381110DC082E0DA
:101B40008093110384E08093120310921403109287
:101B5000130381E08093090381E193E00895CF931B
:101B6000DF930F92CDB7DEB7DC016983ED91FC9175
:101B70000280F381E02D41E050E0BE016F5F7F4FB6
:101B800009950F90DF91CF910895CF93DF93EC01EA
:101B90008C859D8597FF05C082E00E947F089D8708
:101BA0008C878C859D85DF91CF91089583E00E947D
:101BB000960890E0089583E00C940E0BFC01848558
:101BC000958597FD06C082E00E942D0890E0019661
:101BD000089582E00E942D0890E00895FC0184851C
:101BE000958597FD05C02FEF3FEF35872487089532
:101BF00082E00C947F08CF93DF93EC018091180171
:101C0000882331F083E00E94B0081816190634F0DA
:101C100081E090E09B838A8380E090E0DF91CF9128
:101C20000895FC0180818E5F808342E450E067ED7F
:101C300070E080E80C946B09FC0181819081913AFD
:101C400061F4813209F073C047E050E061E171E076
:101C500080E00E946B0981E00895913209F067C02D
:101C6000833269F482819381B0E0A0E080930D011A
:101C700090930E01A0930F01B0931001ECCF80322E
:101C800009F057C067E070E081E191E00E9491099E
:101C900080916503EEEFFAE0811102C0E0E0F8E028
:101CA0008091110190911201A0911301B091140142
:101CB000803B9440A105B105B9F48091180180FDE5
:101CC00013C0EE3F8AE0F80721F587E797E7918395
:101CD000808388E19BE00FB6F894A895809360001C
:101CE0000FBE90936000B7CF0FB6F894A89580917F
:101CF0006000886180936000109260000FBEA8951C
:101D0000EE3F2AE0F20761F41092FF0A1092FE0AF9
:101D1000A2CF808191819093FF0A8093FE0AD5CF54
:101D20008091FE0A9091FF0A9183808394CF80E096
:101D30000895823209F08FCF828180931801A8CF55
:101D40002FEF3FEFFC01358724870895E5E1F3E0AD
:101D50001382128288EE93E0A0E0B0E08483958342
:101D6000A683B7838CE791E0918380838FEF9FEF09
:101D70009587848708951F921FB61F9211242F9371
:101D80003F938F939F93AF93BF93809167039091FD
:101D90006803A0916903B0916A033091660323E060
:101DA000230F2D3750F50196A11DB11D2093660319
:101DB0008093670390936803A0936903B0936A03C9
:101DC00080916B0390916C03A0916D03B0916E03B1
:101DD0000196A11DB11D80936B0390936C03A0939A
:101DE0006D03B0936E03BF91AF919F918F913F911F
:101DF0002F911F901FBE1F90189526E8230F029663
:101E0000A11DB11DD3CFCF93DF9300D000D0CDB7AC
:101E1000DEB73FB7F89480916B0390916C03A0916B
:101E20006D03B0916E0326B5A89B05C02F3F19F036
:101E30000196A11DB11D3FBFBA2FA92F982F88274A
:101E4000820F911DA11DB11D9C01AD0162E0220F09
:101E5000331F441F551F6A95D1F7CA01B9010F906E
:101E60000F900F900F90DF91CF9108958F929F92D6
:101E7000AF92BF92CF92DF92EF92FF92CF93DF9318
:101E800000D000D0CDB7DEB76B017C010E94030FFC
:101E90004B015C01C114D104E104F104F9F00E948A
:101EA000DE0F0E94030FDC01CB0188199909AA09F2
:101EB000BB09883E9340A105B10560F321E0C21A39
:101EC000D108E108F10888EE880E83E0981EA11C75
:101ED000B11CC114D104E104F10419F70F900F9063
:101EE0000F900F90DF91CF91FF90EF90DF90CF9008
:101EF000BF90AF909F908F9008958230910538F0F9
:101F0000880F991F880F991F05970197F1F708957A
:101F1000789484B5826084BD84B5816084BD85B5C4
:101F2000826085BD85B5816085BDEEE6F0E080818B
:101F300081608083E1E8F0E01082808182608083AC
:101F4000808181608083E0E8F0E08081816080832F
:101F5000E1E9F0E08081826080838081816080831C
:101F6000E0E9F0E0808181608083E1ECF0E0808155
:101F700084608083808182608083808181608083AF
:101F8000E3ECF0E0808181608083E0ECF0E0808130
:101F900082608083E2ECF0E0808181608083EAE708
:101FA000F0E0808184608083808182608083808192
:101FB0008160808380818068808308950895815046
:101FC0008F30C0F5E82FF0E0E754FE4E0C9455102A
:101FD000809180008F7780938000089580918000A9
:101FE0008F7DF9CF80918000877FF5CF84B58F7783
:101FF00084BD089584B58F7DFBCF809190008F774D
:10200000809390000895809190008F7DF9CF80910A
:102010009000877FF5CF8091C0008F778093C000BC
:1020200008958091C0008F7DF9CF8091C200877F95
:102030008093C20008951F93CF93DF93162F282F0C
:1020400030E0F901E75EFE4F8491F901E95CFE4F53
:10205000D491F901EA5AFE4FC491CC23A1F0811129
:102060000E94DF0FEC2FF0E0EE0FFF1FEB58FE4F4A
:10207000A591B4918FB7F894EC91111108C0D09547
:10208000DE23DC938FBFDF91CF911F910895DE2B6C
:10209000F8CF991B79E004C0991F961708F0961B9A
:1020A000881F7A95C9F780950895EE0FFF1F059058
:1020B000F491E02D09940F931F93CF93DF93823017
:1020C000910510F482E090E0E0917103F0917203C9
:1020D00030E020E0B0E0A0E0309799F42115310520
:1020E00009F44AC0281B390B24303105D8F58A8100
:1020F0009B816115710589F1FB0193838283FE0148
:1021000011C0408151810281138148175907E0F0C5
:102110004817590799F4109761F012960C9312978B
:1021200013961C933296CF01DF91CF911F910F919F
:1021300008950093710310937203F4CF21153105B4
:1021400051F04217530738F0A901DB019A01BD0194
:10215000DF01F801C1CFEF01F9CF909372038093B3
:102160007103CDCFFE01E20FF31F819391932250B3
:10217000310939832883D7CF20916F0330917003C1
:10218000232B41F42091020130910301309370031D
:1021900020936F0320910001309101012115310539
:1021A00041F42DB73EB74091040150910501241B25
:1021B000350BE0916F03F0917003E217F307A0F481
:1021C0002E1B3F0B2817390778F0AC014E5F5F4F8D
:1021D0002417350748F04E0F5F1F5093700340934C
:1021E0006F03819391939FCFF0E0E0E09CCFCF937A
:1021F000DF930097E9F0FC01329713821282A091DD
:102200007103B0917203ED0130E020E01097A1F46A
:1022100020813181820F931F20916F0330917003D1
:102220002817390709F061C0F0937003E0936F033A
:10223000DF91CF910895EA01CE17DF07E8F54A81D3
:102240005B819E0141155105B1F7E901FB83EA83EA
:1022500049915991C40FD51FEC17FD0761F4808196
:1022600091810296840F951FE90199838883828169
:1022700093819B838A83F0E0E0E012968D919C919C
:1022800013970097B9F52D913C911197CD010296C6
:10229000820F931F20916F03309170032817390725
:1022A00039F6309751F51092720310927103B09382
:1022B0007003A0936F03BCCFD383C283408151814D
:1022C000840F951FC817D90761F44E5F5F4F88814F
:1022D0009981480F591F518340838A819B81938341
:1022E00082832115310509F0B0CFF0937203E0939A
:1022F00071039ECFFD01DC01C0CF13821282D7CFC4
:102300006817790768F4FB01DC01E40FF51FA40FDF
:10231000B51F02C002900E9241505040D8F7089568
:102320000C949911DC0101C06D9341505040E0F7CD
:102330000895FB01DC0102C001900D924150504014
:10234000D8F70895F894FFCFEE06EC06EC06EC06FD
:10235000EC06EC06EC06EE06F006F706F906EC06CF
:10236000FB06FD06EC06EC06EC06FF060907130764
:102370001D07F60FFA0FE80FEE0FF20F1A101A10E2
:102380001A10FD0F031007100B1011101A10151062
:1023900000007303200000C18081000000FFFFFFE8
:1023A000FF00E10000000000007573622D6C6364A3
:1023B0000D0A28632932303231204B20426F6F6E74
:1023C0006500000000000E023A013D01ED01C00170
:1023D000B90169016401E401DD0139010000400037
:1023E00014005400000000008E02BD0261028D0244
:1023F00064026B027E02000000003E0C5507E00BF9
:102400001E0CB30BCC0BBE0B00000000AF0DFB0D80
:0A241000D60DDB0DDE0DEE0DC50D3F
:00000001FF
